:100000000C9434000C9451000C9451000C94510049
:100010000C9451000C9451000C9451000C9451001C
:100020000C9451000C9451000C9451000C9451000C
:100030000C9451000C9451000C9451000C945100FC
:100040000C9451000C9451000C9451000C945100EC
:100050000C9451000C9451000C9451000C945100DC
:100060000C9451000C94510011241FBECFEFD8E026
:10007000DEBFCDBF11E0A0E0B1E0ECE5F7E002C0EB
:1000800005900D92A234B107D9F721E0A2E4B1E0C6
:1000900001C01D92AC34B207E1F70E9457020C94E4
:1000A000AC030C940000CF93C82F8A3019F48DE074
:1000B0000E9453008091C00085FFFCCFC093C60012
:1000C00080E090E0CF9108958091C00087FFFCCF41
:1000D0008091C60090E0089508952C9887EC90E0F8
:1000E0000197F1F700C000002C9A08950F931F9319
:1000F000FC014281538160E070E087E190E08A0179
:100100009B01082E04C036952795179507950A94EC
:10011000D2F72C9A00FF10C0000000000000000081
:100120000000000000002C98000000000000019773
:1001300030F71F910F9108950000000000002C98E7
:10014000000000000000000000000000F0CFCF938E
:10015000DF9300D000D000D0CDB7DEB789839A837B
:100160006B837C831D821E82EB81FC818081918167
:100170002D813E8128173907A0F00E946D003FEFC6
:1001800083ED90E3315080409040E1F700C00000E3
:100190000F900F900F900F900F900F90DF91CF91D5
:1001A000089589819A810E9476002D813E812F5F7A
:1001B0003F4F2D833E83D8CFCF93DF9300D000D025
:1001C000CDB7DEB78B839C8369837A832598249A85
:1001D000EB81FC8184819581892B39F00F900F9000
:1001E0000F900F90DF91CF91089569817A818B8173
:1001F0009C810E94A700ECCFCF93DF9300D000D06A
:10020000CDB7DEB78B839C8369837A8380E890E0E7
:100210000E945902EB81FC818083918389819A81BC
:1002200082839383148215820F900F900F900F900A
:10023000DF91CF910895CF93DF93DC01FB0160E064
:1002400070E012968D919D9114972D913D9112978A
:100250006817790760F0280F391F8AE0F901808359
:1002600012964D935D9381E0DF91CF910895819136
:10027000260F371FE90188836F5F7F4FE2CFFC01B4
:1002800084819581AC014E5F5F4F2281338142179B
:10029000530720F01482158280E090E0A081B181A4
:1002A000A80FB91F6C93A081B18184819581A80F9B
:1002B000B91F11961C928481958101968483958340
:1002C00081E00895CF93DF93EC01888199810E94AA
:1002D000EF0280E890E00E945902888399831C8293
:1002E0001D8281E0DF91CF910895DC0114962D915C
:1002F0003D9116972230310538F0ED91FD91E20FD6
:10030000F31F108281E0089580E008951092C500E7
:1003100087E68093C400E0ECF0E080818D7F8083ED
:1003200086E08093C20088E18093C10008958091A7
:10033000C00087FFFCCF8091C6000895CF93DF9364
:10034000CDB7DEB7A2970FB6F894DEBF0FBECDBF14
:100350008EE0E6E0F1E0DE011F9601900D928A95B5
:10036000E1F78EE0E4E1F1E08E010F5F1F4FD8016D
:1003700001900D928A95E1F70E948601CE010F96B9
:1003800080934801909349010093460110934701DF
:100390002598249A80E890E00E9459028D8F9E8FC4
:1003A00080E28F8F18A219A21AA282E291E00E9425
:1003B000800300E21FED1C9B1CC085B1802785B91E
:1003C0000E9497018830C1F08D30D9F485E391E027
:1003D0000E948003CE014D960E9462018D8D9E8DFC
:1003E0000E9480038FE39CE90197F1F700C00000B1
:1003F000E2CF85B18127E3CFCE014D960E947501F2
:10040000EDCF682FCE014D960E943F01E7CF98E0D7
:100410002C9A87FF0DC000000000000000000000C3
:1004200000002C9800000000880F915089F7089573
:10043000000000002C9800000000000000000000F8
:10044000F3CFCF93DF9300D0CDB7DEB78983862F6C
:100450004A830E94070289810E9407028A810F90C5
:100460000F90DF91CF910C94070287EC90E00197F9
:10047000F1F700C000000895249A40E060E08AEFA0
:100480000E94210240E060E08AEF0E94210287EC96
:1004900090E00197F1F700C000009FEF23ED80E3AB
:1004A000915020408040E1F700C00000E6CF0E945C
:1004B0003C020F931F93CF93DF939C01029710F49C
:1004C00022E030E0E0914201F091430180E090E0D1
:1004D000A0E0B0E0309791F4009709F448C0821B87
:1004E000930B84309105D0F58A819B81611571054C
:1004F00081F1FB0193838283FE0111C04081518110
:100500000281138142175307D8F04217530799F419
:10051000109761F012960C93129713961C933296D3
:10052000CF01DF91CF911F910F9108950093420168
:1005300010934301F4CF009751F04817590738F052
:10054000AC01DB01CA01BD01DF01F801C3CFEF013E
:10055000F9CF9093430180934201CECFFE01E80F83
:10056000F91F21933193029799838883D9CF4091C2
:100570004401509145014115510541F4409102015A
:100580005091030150934501409344018091000133
:1005900090910101009741F48DB79EB760910401DD
:1005A00070910501861B970B4817590708F0B8CFC3
:1005B000841B950B8217930708F4B2CFB9016E5FC5
:1005C0007F4F8617970708F4ABCF640F751F7093A2
:1005D000450160934401FA0121933193A1CFCF9358
:1005E000DF939C010097E9F0FC013297138212829D
:1005F000C0914201D0914301DE0180E090E020975C
:10060000A1F480819181280F391F8091440190913C
:1006100045018217930709F068C0F0934501E09304
:100620004401DF91CF910895DA01AE17BF0708F0BA
:1006300042C012964D915C911397CD014115510521
:1006400099F7DC011396FC93EE9312974D915D910F
:100650009D01240F351FE217F30781F420813181BA
:100660002E5F3F4F240F351FDC0111963C932E93D4
:100670002281338113963C932E931297E0E0F0E0B1
:100680008A819B810097B1F5DE018D919D918A0F42
:100690009B1F20914401309145012817390709F625
:1006A000309759F51092430110924201D0934501C1
:1006B000C0934401B6CFB383A28340815181240FFC
:1006C000351FA217B30771F44E5F5F4F2D913C9118
:1006D0001197240F351F3183208312962D913C9161
:1006E00033832283009709F0ACCFF0934301E0936A
:1006F000420197CFFE01EC01C3CF13821282D6CF05
:100700000F931F93CF93DF93E0914801F09149013C
:10071000238100E010E021FD0EC00FEF1FEFC801A4
:10072000DF91CF911F910F9108950995892B11F0B9
:100730000FEF1FEFCE01EC0189916091480170919C
:100740004901DB011896ED91FC918111EECF8AE011
:0C0750000995892B21F3E1CFF894FFCF2D
:10075C0000004C01200000000002000000005300CB
:10076C000000000000000001000000000000640018
:10077C000000436F6E74726F6C6C6572206F6E6CE0
:10078C00696E652E00636C656172696E67206275B7
:02079C006600F5
:00000001FF
